{
  "contractName": "Adoption",
  "abi": [
    {
      "constant": true,
      "inputs": [
        {
          "name": "",
          "type": "uint256"
        }
      ],
      "name": "adopters",
      "outputs": [
        {
          "name": "",
          "type": "address"
        }
      ],
      "payable": false,
      "stateMutability": "view",
      "type": "function",
      "signature": "0x43ae80d3"
    },
    {
      "constant": false,
      "inputs": [
        {
          "name": "petId",
          "type": "uint256"
        }
      ],
      "name": "adopt",
      "outputs": [
        {
          "name": "",
          "type": "uint256"
        }
      ],
      "payable": false,
      "stateMutability": "nonpayable",
      "type": "function",
      "signature": "0x8588b2c5"
    },
    {
      "constant": true,
      "inputs": [],
      "name": "getAdopters",
      "outputs": [
        {
          "name": "",
          "type": "address[16]"
        }
      ],
      "payable": false,
      "stateMutability": "view",
      "type": "function",
      "signature": "0x3de4eb17"
    }
  ],
  "bytecode": "0x608060405234801561001057600080fd5b506102f4806100206000396000f3fe608060405260043610610057576000357c0100000000000000000000000000000000000000000000000000000000900463ffffffff1680633de4eb171461005c57806343ae80d3146100af5780638588b2c51461012a575b600080fd5b34801561006857600080fd5b50610071610179565b6040518082601060200280838360005b8381101561009c578082015181840152602081019050610081565b5050505090500191505060405180910390f35b3480156100bb57600080fd5b506100e8600480360360208110156100d257600080fd5b81019080803590602001909291905050506101fa565b604051808273ffffffffffffffffffffffffffffffffffffffff1673ffffffffffffffffffffffffffffffffffffffff16815260200191505060405180910390f35b34801561013657600080fd5b506101636004803603602081101561014d57600080fd5b810190808035906020019092919050505061022f565b6040518082815260200191505060405180910390f35b6101816102a4565b60006010806020026040519081016040528092919082601080156101f0576020028201915b8160009054906101000a900473ffffffffffffffffffffffffffffffffffffffff1673ffffffffffffffffffffffffffffffffffffffff16815260200190600101908083116101a6575b5050505050905090565b60008160108110151561020957fe5b016000915054906101000a900473ffffffffffffffffffffffffffffffffffffffff1681565b60008082101580156102425750600f8211155b151561024d57600080fd5b3360008360108110151561025d57fe5b0160006101000a81548173ffffffffffffffffffffffffffffffffffffffff021916908373ffffffffffffffffffffffffffffffffffffffff160217905550819050919050565b6102006040519081016040528060109060208202803883398082019150509050509056fea165627a7a72305820a4c8b530197c1eaa899498f6ab50a2871cbcd0257e89ea5370d0f213b94348670029",
  "source": "pragma solidity >= 0.5.0;\r\n\r\ncontract Adoption {\r\n    address[16] public adopters;\r\n\r\n    // 1. Adopting a pet : 애완동물 입양\r\n    // Solidity에서는 함수 매개변수와 출력의 유형을 모두 지정해야 함. 여기서는 petId(정수)를 받아 정수를 반환 \r\n    function adopt(uint petId) public returns (uint) {\r\n        require(petId >= 0 && petId <= 15); // 배열 petId의 범위 인지 확인\r\n        // adoptersSolidity의 배열은 0부터 인덱싱되므로 ID 값은 0에서 15 사이 \r\n        // require()명령문을 사용하여 ID가 ​​범위 내에 있는지 확인\r\n\r\n        adopters[petId] = msg.sender; // ID가 범위 내에 있으면 adopters배열을 호출한 주소를 추가\r\n        // 이 함수를 호출한 사람 또는 스마트 계약의 주소는 로 표시됩니다msg.sender\r\n\r\n        return petId; // petId확인으로 제공된 것을 반환\r\n    }\r\n\r\n    // Retrieving the adopters : 채택자 검색\r\n    function getAdopters() public view returns (address[16] memory) { // 배열 getter는 지정된 키에서 단일 값만 반환\r\n        return adopters;\r\n    }\r\n}",
  "sourcePath": "F:/dapp-practise/pet-shop-tutorial/contracts/Adoption.sol",
  "compiler": {
    "name": "solc",
    "version": "0.5.0+commit.1d4f565a.Emscripten.clang"
  },
  "schemaVersion": "3.0.1",
  "updatedAt": "2022-11-10T05:57:27.609Z",
  "devdoc": {
    "methods": {}
  },
  "userdoc": {
    "methods": {}
  }
}